:100000000C94B5000C9455060C94D2000C94D200BC
:100010000C94D2000C94D2000C94D2000C94D20018
:100020000C94D2000C94D2000C94D2000C94D20008
:100030000C94D2000C943E060C94D2000C94D20086
:100040000C94D2000C94D2000C94D2000C94D200E8
:100050000C94D2000C94D2000C94D2000C94D200D8
:100060000C94D2000C94D2006E616E00696E660032
:1000700000407A10F35A00A0724E18090010A5D45F
:10008000E80000E87648170000E40B54020000CABC
:100090009A3B000000E1F505000080969800000002
:1000A00040420F000000A086010000001027000061
:1000B0000000E803000000006400000000000A00E7
:1000C000000000000100000000002C76D888DC67EA
:1000D0004F0823DFC1DFAE59E1B1B796E5E3E45342
:1000E000C63AE651997696E8E6C28426EB898C9B5F
:1000F00062ED407C6FFCEFBC9C9F40F2BAA56FA5FF
:10010000F490055A2AF75C936B6CF9676DC11BFC80
:10011000E0E40D47FEF520E6B500D0ED902E03009B
:10012000943577050080841E080000204E0A0000E8
:1001300000C80C333333330F986E12831141EF8DA7
:100140002114893BE65516CFFEE6DB18D1844B38E7
:100150001BF77C1D901DA4BBE424203284725E2218
:100160008100C9F124ECA1E53D2711241FBECFEF8A
:10017000D8E0DEBFCDBF11E0A0E0B1E0E8E2F8E1F9
:1001800002C005900D92A03CB107D9F721E0A0EC88
:10019000B1E001C01D92A33DB207E1F70E940D0638
:1001A0000C94120C0C940000AFE0B0E0EAEDF0E02B
:1001B0000C948A096C011B015A01FC0117821682FA
:1001C000838181FF48C39E012F5F3F4F4901F601A4
:1001D0009381F10193FD859193FF81911F01882304
:1001E00009F4E7C2853239F493FD859193FF81913B
:1001F0001F01853239F4B60190E00E940B0B3501E6
:100200005301E5CFF12C512C00E0003238F48B3251
:1002100009F190F48032F9F0833209F107FD34C01E
:1002200020ED280F2A3020F506FF1BC0FAE0FF9EC4
:10023000200D1124F22E05C08D3279F0803371F734
:100240000160F10193FD859193FF81911F0181115F
:10025000DCCF1AC002600460F4CF0860F2CF006106
:10026000F0CF3AE0539E200D1124522E0062E9CFC8
:100270008E3221F406FD9DC20064E3CF8C3611F46A
:100280000068DFCF8836E9F29BEB980F933008F0D7
:100290005FC00061805E06FD02C046E0F42E102FB4
:1002A0001F73853609F05BC0106417FF61C08F2D86
:1002B0009BE39F1508F48BE344244394480E27E006
:1002C0003501F4E06F0E711CF5016081718182814E
:1002D0009381042DA4010E941D0A5C01F981FC8711
:1002E000F0FF03C00DE2F3FF07C00BE211FD04C0F5
:1002F000012F047012FD00E22C852C70E22E09F40F
:1003000057C00111ABC2F3E0E12CF515A0F483E076
:10031000E52CE81A13FD08C0B60180E290E00E94C7
:100320000B0BEA94E110F8CF002329F0B601802FDF
:1003300090E00E940B0B3C8528E6A22E20E0B22E16
:1003400033FD04C09CE6A92E90E0B92E107122C0A6
:100350009BE9980F933008F033C10F7E9CCF86360F
:1003600011F41068A2CFFF2009F49FCFFA949DCF1B
:10037000E7E02F2DEF1518F427E037E0F32E412C9E
:100380009FCF11118052B60190E00E940B0B8FEFAE
:10039000A81AB80AF50184918111F3CFEE2009F46F
:1003A0002FCFB60180E290E00E940B0BEA94F6CFCB
:1003B00017FF6FC04A0CFC85F4FF04C08A818133AB
:1003C00009F44A9414140CF086C028E0241510F4A3
:1003D00088E0482E85E090E017FF06C0C501B7FE13
:1003E00002C090E080E0019601110196FF2031F0FB
:1003F0002F2D30E02F5F3F4F820F931F58161906A5
:1004000019F014F0E52CE81A812F897011F4E1102D
:1004100067C0002329F0B601802F90E00E940B0BEB
:1004200013FD02C0E11063C017FF7CC08501B7FE59
:1004300002C010E000E0C501841991092C016F2D64
:1004400070E0EE27FF27E61BF70BFF87EE870F3FD5
:10045000100729F4B6018EE290E00E940B0BA01663
:10046000B1060CF44BC0401651060CF047C0F50124
:10047000E01BF10BE80DF91D8181015011092E855A
:100480003F8502171307E4F1B60190E00E940B0BC1
:10049000DECF16FD9FCFEF2DF0E0EA15FB0534F01F
:1004A0003CEFA3163FEFB3060CF010683296E80D50
:1004B000F91D01C0FA94FF2019F082918033D1F325
:1004C00017FF88CF442443944F0CFA141B0431F0D7
:1004D0002CF0FA187FCF442443947CCFF12C7ACFB0
:1004E000B60180E290E00E940B0BEA9490CFB60137
:1004F00080E390E00E940B0BEA9494CF80E3BDCFA1
:10050000A016B10641F49A81963350F4953319F44C
:100510003C8534FF05C0B60190E00E940B0B3ECF36
:1005200081E3F9CF8A81813319F09C859F7E9C8776
:10053000B60190E00E940B0BFF20A9F0B6018EE2FD
:1005400090E00E940B0BF394F394E2E001E00E0FB5
:10055000E80DF92DF11D8081B60190E00E940B0B92
:10056000E02F0F11F3CF85E690E014FF02C085E481
:1005700090E0B6010E940B0BB7FC06C0A114B104B9
:10058000C1F4EC85E4FF15C0B194A194B1088DE2EB
:10059000B60190E00E940B0B80E32AE0A216B104A2
:1005A00054F4B60190E00E940B0BB601C501C09651
:1005B000B4CF8BE2EDCF8F5FFAE0AF1AB108EDCF89
:1005C0008336C9F0833771F1833509F05BC035019B
:1005D000F2E06F0E711CF501A080B1806F2D70E00C
:1005E00006FD02C06FEF7FEFC5010E94F50A9D87EF
:1005F0008C8700680DC0350132E0630E711CF50177
:100600008081898321E030E03D872C8754010F777A
:1006100003FD06C02C853D855216130609F0A8F48B
:10062000E52C2BC0350132E0630E711CF501A08072
:10063000B1806F2D70E006FD02C06FEF7FEFC50146
:100640000E94000B9D878C87E2CFB60180E290E08C
:100650000E940B0B5A94DECFF50107FD859107FF31
:1006600081915F01B60190E00E940B0BE110EA94CA
:100670008C859D8501979D878C87EC85FD85EF2B6B
:1006800059F78CCE843619F0893609F074C03501DB
:1006900007FF66C0F4E06F0E711CF5016081718187
:1006A00082819381102F1F7697FF08C090958095C7
:1006B000709561957F4F8F4F9F4F10682AE030E013
:1006C000A4010E94510BA82EA818BA2C012F16FFC6
:1006D0000AC00E7FAF1438F414FF04C012FD02C02C
:1006E000012F0E7EBF2C04FF8EC0FE01EA0DF11D0E
:1006F0008081803309F080C0097EF02FF870EF2EE2
:1007000003FD90C000FF8AC0FA2CB51410F4F50C5C
:10071000FB1804FF8DC0B60180E390E00E940B0B34
:1007200002FF09C088E790E001FF02C088E590E081
:10073000B6010E940B0BAF1408F486C0AA940A2DD0
:1007400010E00F5F1F4F080D191DF80182918F01F6
:10075000B60190E00E940B0B80169106B1F71ECEF9
:10076000F2E06F0E711CF50160817181072E000CA3
:10077000880B990B97CF102F8537A9F41F7E2AE09D
:1007800030E0350117FF2FC0F4E06F0E711CF5014A
:100790006081718182819381A4010E94510BA82EF6
:1007A000A8181F7792CF197F8F36D1F048F488357B
:1007B00091F0F601868197812F96E2E10C94A609CB
:1007C000803739F08837A9F714FD146020E130E054
:1007D000D8CF1061F9CF04FD166020E132E0D1CF0F
:1007E00028E030E0CECFF2E06F0E711CF5016081A1
:1007F000718190E080E0D0CF02FD02C0B3947DCF44
:10080000B394B3947ACF802F867809F476CFF6CF5D
:10081000B60180E290E00E940B0BB394B514C0F3D4
:10082000E12C77CFE52CEB18B51408F472CFF8CF94
:10083000802F867809F47FCF8BE201FF80E207FDED
:100840008DE2B60190E075CFB60180E390E00E94A2
:100850000B0BFA9470CF8FEF9FEFAECF24E0E12C1B
:10086000251508F063CD84E053CD84B5826084BD46
:1008700085B5826085BD86E487BDE1E8F0E08081D2
:1008800084648083EFE6F0E0808181608083089556
:100890004F925F926F927F928F929F92AF92BF9290
:1008A000CF92DF92EF92FF920F931F93CF93DF933C
:1008B0009B0170E060E0BA0155274427420F531FA7
:1008C000611D711D8A019B01081B190B210931094A
:1008D000C901B8010E9468082FE231EA4DEB5CE3E0
:1008E0000E941D09C62ED72EE82EF92EF8949F934C
:1008F0008F937F936F9384E191E09F938F930E94F6
:100900003B0BC091C001D091C1018E010F5F1F4F01
:100910001093C1010093C0018090C6019090C7015F
:10092000A090C801B090C901772473940F900F90E4
:100930000F900F900F900F902C2D3D2D4E2D5F2D71
:10094000C501B4010E94180918160CF083C071107B
:100950000DC07724739420E030E0A901C501B401F3
:100960000E94EF078111712C772061F08C2D9D2D55
:10097000AE2DBF2D8093C6019093C701A093C801EF
:10098000B093C901B80190E080E00E9466082B0195
:100990003C01BE0190E080E00E9466082091C20107
:1009A0003091C3014091C4015091C5010E941D09BD
:1009B000A30192010E94F4074B015C01A301920183
:1009C0006C2D7D2D8E2D9F2D0E94F4079B01AC0177
:1009D000C501B4010E948307262F372F462F572FBA
:1009E000682F792F4093C2015093C3016093C401D3
:1009F0007093C5014091C9014F934091C8014F9335
:100A00004091C7014F934091C6014F939F938F939D
:100A10003F932F9386E291E09F938F930E943B0B2D
:100A20002DB73EB7265F3F4F0FB6F8943EBF0FBEBF
:100A30002DBFDF91CF911F910F91FF90EF90DF902D
:100A4000CF90BF90AF909F908F907F906F905F906E
:100A50004F900895712C7BCFCF92DF92EF92FF924F
:100A60000F931F93CF93DF938C01C9E3D1E00F2E37
:100A7000F4E8EF2EF12CF02D0F2EF8E4CF2EF1E05C
:100A8000DF2EF02DF894DF93CF930E943B0BF701FC
:100A9000808191810E94120A0E940D0A0F900F908E
:100AA00099233CF1959587959595879588519C4F0D
:100AB0001816190604F518990AC0ECECFAE03197FB
:100AC000F1F700C000000197B1F0189BF6CFDF925C
:100AD000CF920E943B0B0F900F901899FECFFFEF23
:100AE0002FEB86E0F15020408040E1F700C000008D
:100AF000C9CF0396D7CF0115110509F43EC08BB1BC
:100B000091E089278BB9E0918400F091850096B33C
:100B1000916296BB1092CC011092CB0178942091F7
:100B2000CB013091CC012630310568F4B59BF7CF6D
:100B300060918600709187004091CB015091CC016B
:100B4000CF010E944804012BE9F08BB191E0892785
:100B50008BB98091CB019091CC010697C0F4189984
:100B6000FECF81E08CBB7894DF91CF911F910F91E4
:100B7000FF90EF90DF90CF90089584B590E489279F
:100B800084BDC1CF84B590E4892784BDE2CFF894B9
:100B900087E591E09F938F930E943B0BFFEF2FEB34
:100BA00086E0F15020408040E1F700C0000087E679
:100BB00091E09F938F930E943B0B0F900F900F90AB
:100BC0000F90CDCF88E791E09F938F930E943B0BCE
:100BD0008DE891E09F938F930E943B0B1092C2018E
:100BE0001092C3011092C4011092C5011092C60167
:100BF0001092C7011092C8011092C9011092C10150
:100C00001092C00181E090E090930501809304016F
:100C10000F900F900F900F900895509A569A5298F7
:100C20005A980E9435040E94400786E091E0909314
:100C3000D0018093CF0180EA91E09F938F930E942F
:100C40003B0B8DE891E09F938F930E943B0BE9E66D
:100C5000F0E080818160808378940F900F900F90F6
:100C60000F90E89A189BFDCFE8981899FECF8091D5
:100C70000401909105010E942C05F3CF1F920F9261
:100C80000FB60F9211248F939F938091CB01909177
:100C9000CC0101969093CC018093CB019F918F91D1
:100CA0000F900FBE0F901F9018951F920F920FB6C6
:100CB0000F9211242F933F934F935F936F937F93E2
:100CC0008F939F93AF93BF93EF93FF93E09915C0DA
:100CD0008CEC9AE00197F1F700C0000087EE93E0FA
:100CE000E0990BC0ECECFAE03197F1F700C000009E
:100CF0000197B1F70E94E2051AC081E08CBB809198
:100D000004019091050121E030E0009711F030E0FE
:100D100020E03093050120930401892BD9F487EB5F
:100D200091E09F938F930E943B0B0F900F9081E077
:100D30008CBBFF91EF91BF91AF919F918F917F916C
:100D40006F915F914F913F912F910F900FBE0F9038
:100D50001F9018958BEB91E09F938F930E943B0B14
:100D60000F900F90E4CF449861110DC0439895B156
:100D7000937C880F880F892B85B9459A82E08A95E4
:100D8000F1F745980895439AF2CF449A94B1937C31
:100D900094B9811112C04398459A82E08A95F1F77F
:100DA00083B1459894B19C6394B9449890E095952B
:100DB0008795959587958F700895439AEDCFCF933A
:100DC000DF93C82FD62F82958F700E94B3066D2FA8
:100DD0008C2F8F700E94B306DF91CF910895CF932F
:100DE000DF93C82F0E94C506D82FD295D07F8C2FB5
:100DF0000E94C5068D2BDF91CF91089580E00E945F
:100E0000EF068823DCF308953B9A3C9A3D9A84B11F
:100E10008C6384B98FEF91EA0197F1F700C000006D
:100E200060E083E00E94B30687E49CE20197F1F75B
:100E300000C060E083E00E94B30684E191E0019786
:100E4000F1F7000060E083E00E94B30698E89A950D
:100E5000F1F700C060E082E00E94B30680E00E94EB
:100E6000FE0660E088E20E94DF0680E00E94FE0647
:100E700060E088E00E94DF0680E00E94FE060895A0
:100E80000E94040760E081E00E94DF0681E00E948A
:100E9000FE0660E086E00E94DF0680E00E94FE061B
:100EA00060E08EE00E94DF0680E00E94FE0608956A
:100EB000CF93C82F8091CA01811114C0CB3171F03A
:100EC000CF3108F4C05D80E00E94FE0661E08C2F07
:100ED0000E94DF0690E080E0CF91089581E080934A
:100EE000CA01F8CF80E00E94FE0660E08C2F0E94CD
:100EF000DF06C43018F01092CA01ECCF81E00E94E6
:100F0000FE06F9CF5058BB27AA270E949A070C94D7
:100F1000DE080E94D00838F00E94D70820F039F48B
:100F20009F3F19F426F40C94CD080EF4E095E7FBEE
:100F30000C94C708E92F0E94EF0858F3BA1762070C
:100F400073078407950720F079F4A6F50C9411092E
:100F50000EF4E0950B2EBA2FA02D0B01B9019001D4
:100F60000C01CA01A0011124FF27591B99F0593F18
:100F700050F4503E68F11A16F040A22F232F342F60
:100F80004427585FF3CF469537952795A795F040AE
:100F90005395C9F77EF41F16BA0B620B730B840BC3
:100FA000BAF09150A1F0FF0FBB1F661F771F881F7B
:100FB000C2F70EC0BA0F621F731F841F48F48795D3
:100FC00077956795B795F7959E3F08F0B0CF9395C5
:100FD000880F08F09927EE0F9795879508950E943E
:100FE000A30808F481E008950E9408080C94DE0824
:100FF0000E94D70858F00E94D00840F029F45F3FC3
:1010000029F00C94C70851110C9412090C94CD08C6
:101010000E94EF0868F39923B1F3552391F3951BD0
:10102000550BBB27AA2762177307840738F09F5F09
:101030005F4F220F331F441FAA1FA9F335D00E2E76
:101040003AF0E0E832D091505040E695001CCAF7E3
:101050002BD0FE2F29D0660F771F881FBB1F2617A6
:1010600037074807AB07B0E809F0BB0B802DBF017D
:10107000FF2793585F4F3AF09E3F510578F00C944C
:10108000C7080C9412095F3FE4F3983ED4F38695A9
:1010900077956795B795F7959F5FC9F7880F911D6D
:1010A0009695879597F90895E1E0660F771F881F59
:1010B000BB1F621773078407BA0720F0621B730B0C
:1010C000840BBA0BEE1F88F7E0950895E89409C0E9
:1010D00097FB3EF490958095709561957F4F8F4F6B
:1010E0009F4F9923A9F0F92F96E9BB279395F69581
:1010F000879577956795B795F111F8CFFAF4BB0FFF
:1011000011F460FF1BC06F5F7F4F8F4F9F4F16C062
:10111000882311F096E911C0772321F09EE8872FEC
:10112000762F05C0662371F096E8862F70E060E0A8
:101130002AF09A95660F771F881FDAF7880F969521
:10114000879597F90895990F0008550FAA0BE0E8C5
:10115000FEEF16161706E807F907C0F01216130679
:10116000E407F50798F0621B730B840B950B39F4B9
:101170000A2661F0232B242B252B21F408950A261F
:1011800009F4A140A6958FEF811D811D089597F95F
:101190009F6780E870E060E008959FEF80EC08951D
:1011A00000240A9416161706180609060895002446
:1011B0000A9412161306140605060895092E0394C0
:1011C000000C11F4882352F0BB0F40F4BF2B11F434
:1011D00060FF04C06F5F7F4F8F4F9F4F089557FD93
:1011E0009058440F551F59F05F3F71F04795880F95
:1011F00097FB991F61F09F3F79F08795089512162C
:1012000013061406551FF2CF4695F1DF08C01616D7
:1012100017061806991FF1CF869571056105089488
:101220000895E894BB2766277727CB0197F908959F
:101230000E94A30808F48FEF08950E9430090C94CF
:10124000DE080E94D00838F00E94D70820F09523CD
:1012500011F00C94C7080C94CD0811240C941209B9
:101260000E94EF0870F3959FC1F3950F50E0551F52
:10127000629FF001729FBB27F00DB11D639FAA27EB
:10128000F00DB11DAA1F649F6627B00DA11D661F3A
:10129000829F2227B00DA11D621F739FB00DA11D5B
:1012A000621F839FA00D611D221F749F3327A00D15
:1012B000611D231F849F600D211D822F762F6A2FB1
:1012C00011249F5750409AF0F1F088234AF0EE0F16
:1012D000FF1FBB1F661F771F881F91505040A9F743
:1012E0009E3F510580F00C94C7080C9412095F3F93
:1012F000E4F3983ED4F3869577956795B795F7957F
:10130000E7959F5FC1F7FE2B880F911D96958795F6
:1013100097F908952F923F924F925F926F927F922A
:101320008F929F92AF92BF92CF92DF92EF92FF92F5
:101330000F931F93CF93DF93CDB7DEB7CA1BDB0BA1
:101340000FB6F894DEBF0FBECDBF09942A88398846
:1013500048885F846E847D848C849B84AA84B9844D
:10136000C884DF80EE80FD800C811B81AA81B98159
:10137000CE0FD11D0FB6F894DEBF0FBECDBFED016D
:1013800008958F929F92AF92BF92CF92DF92EF9289
:10139000FF92CF93DF93EC01688179818A819B81F1
:1013A000611571058105910521F464E279ED8BE504
:1013B00097E02DE133EF41E050E00E94AF0B49018F
:1013C0005A019B01AC01A7EAB1E40E94CE0B6B016C
:1013D0007C01ACEEB4EFA50194010E94DC0BDC01B2
:1013E000CB018C0D9D1DAE1DBF1DB7FF03C0019726
:1013F000A109B04888839983AA83BB839F77DF9133
:10140000CF91FF90EF90DF90CF90BF90AF909F90E3
:101410008F9008950E94C109089580E091E00E9494
:10142000C1090895B0E0A0E080930001909301010C
:10143000A0930201B09303010895283008F027E03B
:101440003327DA01990F311D87FD91600096610500
:10145000710539F432602E5F3D9330E32A95E1F750
:1014600008959F3F30F080387105610509F03C5FB9
:101470003C5F3D93913008F08068911DDF93CF93DE
:101480001F930F93FF92EF92192F987F9695E92F54
:1014900096959695E90FFF27E653FF4F9927332737
:1014A000EE24FF24A701E70105900894079428F48F
:1014B000360FE71EF81E491F511D660F771F881F44
:1014C000991F0694A1F70590079428F4E70EF81EDB
:1014D000491F561FC11D770F881F991F661F06944D
:1014E000A1F70590079428F4F80E491F561FC71F4F
:1014F000D11D880F991F661F771F0694A1F70590CD
:10150000079420F4490F561FC71FD81F990F661F55
:10151000771F881F0694A9F784911095177041F0E2
:10152000D695C79557954795F794E7941A95C1F7BF
:10153000E0E7F0E0689415901591359165919591EB
:1015400005907FE27395E118F10A430B560BC90B26
:10155000D009C0F7E10CF11E431F561FC91FD01D53
:101560007EF4703311F48A95E6CFE894015030F0A0
:10157000080F0AF40027021708F4202F2395022FE2
:101580007A3328F079E37D932A95E9F710C07D93AB
:101590002A9589F606949795679537951795179428
:1015A000E118F10A430B560BC90BD00998F02395AB
:1015B0007E9173957A3308F070E37C932013B8F72B
:1015C0007E9170617D9330F0839571E37D9370E33C
:1015D0002A95E1F71124EF90FF900F911F91CF9181
:1015E000DF91992787FD90950895FC010590615042
:1015F00070400110D8F7809590958E0F9F1F089529
:10160000FC016150704001900110D8F780959095D1
:101610008E0F9F1F08950F931F93CF93DF93182F63
:10162000092FEB018B8181FD09C01FEF0FEF812F87
:10163000902FDF91CF911F910F91089582FF14C0D9
:101640002E813F818C819D81281739073CF4E881E8
:10165000F981CF0101969983888310838E819F81C0
:1016600001969F838E83E3CFE885F985812F0995C5
:10167000892BA1F3DACFB0E0A0E0E1E4FBE00C9429
:101680009A09AE014B5F5F4FFA0161917191AF0111
:101690008091CF019091D0010E94D400E2E00C949F
:1016A000B609FA01AA27283051F1203181F1E894D6
:1016B0006F936E7F6E5F7F4F8F4F9F4FAF4FB1E045
:1016C0003ED0B4E03CD0670F781F891F9A1FA11D40
:1016D000680F791F8A1F911DA11D6A0F711D811D41
:1016E000911DA11D20D009F468943F912AE0269F06
:1016F00011243019305D3193DEF6CF010895462F65
:101700004770405D4193B3E00FD0C9F7F6CF462F45
:101710004F70405D4A3318F0495D31FD40524193AE
:1017200002D0A9F7EACFB4E0A6959795879577956B
:101730006795BA95C9F700976105710508959B01F2
:10174000AC010A2E06945795479537952795BA957B
:10175000C9F7620F731F841F951FA01D0895052EE2
:1017600097FB1EF400940E94C60B57FD07D00E9401
:10177000E10B07FC03D04EF40C94C60B509540953A
:10178000309521953F4F4F4F5F4F0895909580952D
:10179000709561957F4F8F4F9F4F08950E94030C66
:1017A000A59F900DB49F900DA49F800D911D1124B5
:1017B0000895B7FF0C94CE0B0E94CE0B821B930BA7
:1017C0000895A1E21A2EAA1BBB1BFD010DC0AA1F82
:1017D000BB1FEE1FFF1FA217B307E407F50720F09A
:1017E000A21BB30BE40BF50B661F771F881F991F15
:1017F0001A9469F760957095809590959B01AC015E
:10180000BD01CF010895A29FB001B39FC001A39F66
:10181000700D811D1124911DB29F700D811D112429
:08182000911D0895F894FFCF1B
:10182800010000000100000000020000000058074D
:10183800000000001B80202020202530362E316635
:101848006D73202020001BC02530362E31662C20D9
:101858002530362E31666D73001B80202072756E20
:101868006E696E672E2E2E001B80202020746F6FED
:10187800206561726C79001B8020204E6F205265B4
:1018880073706F6E7365001B802020202020204E0F
:10189800414E6D73202020001B011B80202020203A
:1018A80020204E414E6D73202020204C001BC0206C
:1018B800204E414E6D73202020204E414E6D730006
:1018C8001B011B0C1B802020202020204E414E6D28
:1018D80073202020204C001B8F4C001B8F530000CE
:00000001FF
